11111-11111-33333-44444Battery       A-101231BP456xxxxxV  003TOYCamry     2015              23456xxxxxSSubContractor  005332010010111234 West Main Order Dept.                   Any Town       AL359949999921234 West Main Sched Dept.    Attn: Mary     Any Town       AL359949999931234 West Main Remit Dept.    Attn: Bob      Any Town       AL3599499999000001TUR00000010000022952020072520200910000002TUR00000020000015482020072620200903000003TUR00000010001023452020072820201012
11111-22222-33333-44444Muffler       A-101232BP457xxxxxCM 003CHRTownCxxxxx2015xxxxxxxxxxxxxx23456xxxxxMManufacturer   004332010010111234 West Main Order Dept.                   Any Town       AL350049999921234 West Main Sched Dept.    Attn: Mary     Any Town       AL350049999931234 West Main Remit Dept.    Attn: Bob      Any Town       AL3599499999000001TUR00000010000022952020072520200910000002TUR00000020000015482020072620200903000003TUR00000010001023452020072820201012
11111-33333-33333-55555Brake Pads    A-101233BP458xxxxxCM 001GM GMC  xxxxx2017xxxxxxxxxxxxxx36981xxxxxDDistributor    002212015050711194 Grove Ave.  Main Office   Attn: Chris   My  Town       AL35994999992294  Grove Ave.  Main Office  Attn: Ted      My  Town       AL3599499999394   Grove Ave.  Main Office  Attn: Susan    My  Town       AL3599499999001025TUR00001000000022952020061320200710001036TUR00002250000015482020072620200803001068TUR00010000000001452020082820201012
11111-44444-33333-66666Oil Filter    V-101231BP459xxxxxCM 002VW TourExxxxx2008xxxxxxxxxxxxxx78912xxxxxIImporter       001112018060727986 Maple ST. Order Dept.     Attn: Mike    My  City       AL359949999927986 Maple ST.                Attn: Mary     My  City       AL359949999937986 Maple ST.                Attn: Matt     My  City       AL3599499999009887URB00000100000322952020051220200623010145URB00002000000126232020060520200715020067URB00010000000001992020070520200901
11111-55555-33333-66666Brake Disc    V-101232BP460xxxxxCM 002VW Beatle    2008xxxxxxxxxxxxxx78914xxxxxMManufacturer   111312018060727986 Maple ST.                 Attn: Mike    My  City       AL359949999927986 Maple ST.                Attn: Mary     My  City       AL359949999937986 Maple ST.                Attn:          My  City       AL3599499999009887URB00000100000322952020051220200623010145URB00002000000126232020060520200715020067URB00010000000001992020070520200901
11111-66666-33333-66666Air Filter    V-101233BP470xxxxxCM 002VW SEATE     2010              78913xxxxxMManufacturer   222112018060727986 Maple ST.                 Attn: Mike    My  City       AL359949999927986 Maple ST.                Attn: Mary     My  City       AL3599499999                                                                         009887URB00000100000322952020051220200623010145URB00002000000126232020060520200715020067URB00010000000001992020070520200901
22222-00000-33333-66666Windscreen    F-101231BP480xxxxxCM 004FORF150Exxxxx2012xxxxxxxxxxxxxx77778     IImporter1      333232017060730010 Boone Valley Ridge        Attn: Peter   Wenzville      MO6558499999269   St Robert Blvd.          Attn: Otto     Wenzville      MO655849999937986 Maple ST.                Attn:          My  City       AL3599499999009887URB00000100000322952020051220200623010145URB00002000000126232020060520200715020067URB00010000000001992020070520200901
22222-11111-33333-66666Wiper blade   F-101232BP481xxxxxCM 004FORF150Exxxxx2012xxxxxxxxxxxxxx77779     IImporter1      444132010010130010 Hundorfer ST.             Attn: Peter   Owneswill      CT0600399999269   St Robert Blvd.          Attn: Fred     Owneswill      CT060039999937986 Maple ST.                Attn: Matt     My  City       AL3599499999009887URB00000100000322952020051220200623010145URB00002000000126232020060520200715020067URB00010000000001992020070520200901
22222-22222-33333-66666Stiring wheel T-101233BP482xxxxxCM 010TOYTacoma    2001xxxxxxxxxxxxxx77760     SSubContractor  555332017060730010 Hundorfer ST.             Attn:         Luebstorf      DC20042999992690  Hundorfer ST.            Attn: Klaus    Luebtorf       DC200429999937986 Maple ST.                Attn: Peter    My  City       AL3599499999009887URB00000100000322952020051220200623010145URB00002000000126232020060520200715020067URB00010000000001992020070520200901
22222-33333-33333-66666Car seat      C-101231BP483xxxxxCM 005CHRPacifica  2012xxxxxxxxxxxxxx77761     IImporter1      044132017060730010 Augusta ST.                             Augusta        ND5800999999210   Augusta St               Attn: Peter    Augusta        ND5800999999                                                                         009887URB00000100000322952020051220200623010145URB00002000000126232020060520200715020067URB00010000000001992020070520200901
22222-44444-33333-66666Break Light   B-101234BP484xxxxxCM 001BMWZ4        2020xxxxxxxxxxxxxx77762     SSubContractor  045232017060730010 Berlin ST.                Attn: Otto    Berlin         MO6558499999220   Berlin ST                Attn: Tom      Berlin         MO655849999937986 Maple ST.                Attn: Tom      Berlin         MO6558499999009887URB00000100000322952020051220200623010145URB00002000000126232020060520200715020067URB00010000000001992020070520200901
22222-55555-33333-66666Bumper        B-101235BP485xxxxxCM 011BMWM3        2010xxxxxxxxxxxxxx77763     MManufacturer   056132017060730010 Magdeburger ST.                         Magdeburg      MO6558499999230   Magdeburger Str.                        Magdeburg      MO655849999937986 Maple ST.                Attn: Matt     My  City       AL3599499999009887URB00000100000322952020051220200623010145URB00002000000126232020060520200715020067URB00010000000001992020070520200901
22222-66666-33333-66666O2 sensor     P-101236BP486xxxxxCM 004PEU5008Exxxxx2013xxxxxxxxxxxxxx0000000003IImporter1      087132017060730010 Leipziger ST.             Attn: Hans    Leipzig        MO65584999992410  Leipziger Str.           Attn: Sue      Leipzig        MO655849999937986 Maple ST.                Attn: Matt     My  City       AL3599499999009887URB00000100000322952020051220200623010145URB00002000000126232020060520200715020067URB00010000000001992020070520200901
22222-77777-33333-66666Suspension    P-101237BP487xxxxxCM 002PEURifterxxxx2014xxxxxxxxxxxxxx0000000002MManufacturer   088332017060730010 Dresden ST.               Attn: Oli     Dresden        MO655849999929    Dresdner Str.                           Dresden        MO655849999937986 Maple ST.                Attn: Matt     My  City       AL3599499999009887URB00000100000322952020051220200623010145URB00002000000126232020060520200715020067URB00010000000001992020070520200901
22222-88888-33333-66666carburetor    J-101238BP488xxxxxCM 012JAGE-PACExxxx2015xxxxxxxxxxxxxx0000000001IImporter1      088332017060730010 Freiburg ST.              Attn: Uta     Freibug        MO6558499999269   Freiburg Str.            Attn: Lola     Freibug        MO655849999937986 Maple ST.                Attn: Matt     My  City       AL3599499999009887URB00000100000322952020051220200623010145URB00002000000126232020060520200715020067URB00010000000001992020070520200901
22222-99999-33333-66666Exhaust pipe  J-101239BP489     CM 015JAGE-PACExxxx2016xxxxxxxxxxxxxx1234567890IImporter1      004332017060730010 HermannST.                              Hermann        MO6558499999269   Hermann Blvd.                           Hermann        MO6558499999                                                                         009887URB00000100000322952020051220200623010145URB00002000000126232020060520200715020067URB00010000000001992020070520200901